{
  "contractName": "SimpleStorage",
  "abi": [
    {
      "anonymous": false,
      "inputs": [],
      "name": "Odd",
      "type": "event"
    },
    {
      "anonymous": false,
      "inputs": [],
      "name": "Even",
      "type": "event"
    },
    {
      "constant": false,
      "inputs": [
        {
          "name": "x",
          "type": "uint256"
        }
      ],
      "name": "set",
      "outputs": [],
      "payable": false,
      "stateMutability": "nonpayable",
      "type": "function"
    },
    {
      "constant": true,
      "inputs": [],
      "name": "get",
      "outputs": [
        {
          "name": "",
          "type": "uint256"
        }
      ],
      "payable": false,
      "stateMutability": "view",
      "type": "function"
    }
  ],
  "bytecode": "0x6060604052341561000f57600080fd5b61014f8061001e6000396000f30060606040526004361061004c576000357c0100000000000000000000000000000000000000000000000000000000900463ffffffff16806360fe47b1146100515780636d4ce63c14610074575b600080fd5b341561005c57600080fd5b610072600480803590602001909190505061009d565b005b341561007f57600080fd5b61008761011a565b6040518082815260200191505060405180910390f35b8060008190555060006002828115156100b257fe5b0614156100ea577fe3a5ecb6481f0c889ad39d33955cfb7577c1f4f620a255551eca6f1345fb388760405160405180910390a1610117565b7f639ac11a0fa7436e2538df35a1a90d51be9b52fd9159d87907c7e907b745889c60405160405180910390a15b50565b600080549050905600a165627a7a723058201b11fd640845603018ef4182b64f76dea8b919b65397b21cf46910e45a3eeb9c0029",
  "source": "pragma solidity ^0.4.17;\n\ncontract SimpleStorage {\n\tuint logger;\n\tevent Odd();\n\tevent Even();\n\n\tfunction set(uint x) public {\n\t\tlogger = x;\n\t\tif (x % 2 == 0) {\n\t\t\tOdd();\n\t\t} else {\n\t\t\tEven();\n\t\t}\n\t}\n\n\tfunction get() constant public returns (uint) {\n\t\treturn logger;\n\t}\n}",
  "sourcePath": "/Users/fodediop/crypto/solidity-experiments/contracts/Storage.sol",
  "compiler": {
    "name": "solc",
    "version": "0.4.19+commit.c4cbbb05.Emscripten.clang"
  },
  "schemaVersion": "2.0.0",
  "updatedAt": "2018-03-01T19:30:45.330Z"
}